:020000040000FA
:0400000007EF00F016
:0A0008005F82DCED11F05EEF19F0ED
:101000000020202054696D65203D203030202020B4
:1010100020202000202020202020202020202020F0
:10102000202020200020202050554D50204F4E20C1
:1010300020202020200020202048454154455220D7
:101040004F4E202020200020202049444C45205392
:10105000544154452020200054203D203030204869
:10106000203D2030300054203D2020202048203DCD
:1010700020002D2D00000001DB518C1907E1DC510F
:101080008D19D8A446EF08F048EF08F04BEF08F0B0
:10109000FF0E21EF0BF0000E316E000E306E57EF99
:1010A00008F0010E3024306E000E3120316E30C059
:1010B00001F031C002F0000E046E180E036E91ECC8
:1010C0001BF0150E0124D96E010E0220DA6EDE042B
:1010D000D8B46DEF08F06FEF08F051EF08F030C0B2
:1010E00001F031C002F0000E046E180E036E91EC98
:1010F0001BF0150E0124D96E010E0220DA6E010ECE
:10110000DF6E30C001F031C002F0000E046E180E28
:10111000036E91EC1BF0030E0124D96E010E022028
:10112000DA6E07C0DEFF08C0DEFF09C0DEFF0AC0BE
:10113000DEFF0BC0DEFF0CC0DEFF0DC0DEFF0EC009
:10114000DEFF30C001F031C002F0000E046E180E58
:10115000036E91EC1BF00B0E0124D96E010E0220E0
:10116000DA6E0FC0DEFF10C0DEFF11C0DEFF12C05E
:10117000DEFF13C0DEFF14C0DEFF15C0DEFF16C0A9
:10118000DEFF30C001F031C002F0000E046E180E18
:10119000036E91EC1BF0160E0124D96E010E022095
:1011A000DA6EFF0EDE6EFF0EDD6E30C001F031C074
:1011B00002F0000E046E180E036E91EC1BF0130E7D
:1011C0000124D96E010E0220DA6E1AC0DEFF1BC0A8
:1011D000DDFF30C001F031C002F0000E046E180EC9
:1011E000036E91EC1BF0000E0124D96E010E02205B
:1011F000DA6E17C0DEFF18C0DEFF19C0DEFF000187
:101200008C518D11D8A407EF09F009EF09F013EF05
:1012100009F030C08AF031C08BF000018C4B8D2B6F
:10122000000E21EF0BF08AC02EF08BC02FF02EC0E5
:1012300001F02FC002F0000E046E180E036E91EC48
:101240001BF0030E0124D96E010E0220DA6E30C0AD
:1012500001F031C002F0000E046E180E036E91EC26
:101260001BF0030E0124E16E010E0220E26EDE503F
:10127000E65CDE50E658DE50E658DE50E658DE50BA
:10128000E658DE50E658DE50E658DE50E658D8B054
:101290004CEF09F04EEF09F0B1EF0AF030C001F069
:1012A00031C002F0000E046E180E036E91EC1BF0BC
:1012B000160E0124D96E010E0220DA6E8AC0DEFFFE
:1012C0008BC0DDFF30C08AF031C08BF030C001F040
:1012D00031C002F0000E046E180E036E91EC1BF08C
:1012E000030E0124D96E010E0220DA6EDECF1CF04F
:1012F000DECF1DF0DECF1EF0DECF1FF0DECF20F000
:10130000DECF21F0DECF22F0DECF23F02EC001F0C1
:101310002FC002F0000E046E180E036E91EC1BF04D
:10132000030E0124D96E010E0220DA6E1C50DE5E1F
:101330001D50DE5A1E50DE5A1F50DE5A2050DE5A13
:101340002150DE5A2250DE5A2350DE5A0DEF09F0AA
:101350002EC001F02FC002F0000E046E180E036EB6
:1013600091EC1BF0030E0124D96E010E0220DA6EFF
:10137000DECF1CF0DECF1DF0DECF1EF0DECF1FF083
:10138000DECF20F0DECF21F0DECF22F0DECF23F063
:1013900030C001F031C002F0000E046E180E036E72
:1013A00091EC1BF0030E0124D96E010E0220DA6EBF
:1013B0001C50DE5E1D50DE5A1E50DE5A1F50DE5A93
:1013C0002050DE5A2150DE5A2250DE5A2350DE5A77
:1013D0002EC001F02FC002F0000E046E180E036E36
:1013E00091EC1BF0160E0124D96E010E0220DA6E6C
:1013F000DECF2CF0DDCF2DF02CC001F02DC002F09F
:10140000000E046E180E036E91EC1BF0030E012407
:10141000D96E010E0220DA6E30C001F031C002F048
:10142000000E046E180E036E91EC1BF0030E0124E7
:10143000E16E010E0220E26EDE50E65CDE50E65800
:10144000DE50E658DE50E658DE50E658DE50E658EC
:10145000DE50E658DE50E658D8B031EF0AF033EFF0
:101460000AF09DEF0AF030C001F031C002F0000E2A
:10147000046E180E036E91EC1BF0160E0124D96E4B
:10148000010E0220DA6E2CC0DEFF2DC0DDFF30C061
:1014900001F031C002F0000E046E180E036E91ECE4
:1014A0001BF0030E0124D96E010E0220DA6EDECF8E
:1014B0001CF0DECF1DF0DECF1EF0DECF1FF0DECF42
:1014C00020F0DECF21F0DECF22F0DECF23F02CC0E3
:1014D00001F02DC002F0000E046E180E036E91ECA8
:1014E0001BF0030E0124D96E010E0220DA6E1C508F
:1014F000DE5E1D50DE5A1E50DE5A1F50DE5A20504E
:10150000DE5A2150DE5A2250DE5A2350DE5A2EC0B7
:1015100001F02FC002F0000E046E180E036E91EC65
:101520001BF0160E0124D96E010E0220DA6E30C0B7
:10153000DEFF31C0DDFF0DEF09F02EC001F02FC03E
:1015400002F0000E046E180E036E91EC1BF0160EE6
:101550000124D96E010E0220DA6EDECF2EF0DDCF2F
:101560002FF02EC001F02FC002F0000E046E180EF6
:10157000036E91EC1BF0160E0124D96E010E0220B1
:10158000DA6EDE2806E1DE28D8A4C9EF0AF0CBEF38
:101590000AF0A8EF09F02EC001F02FC002F0000EF3
:1015A000046E180E036E91EC1BF0030E0124D96E2D
:1015B000010E0220DA6EDECF1CF0DECF1DF0DECF92
:1015C0001EF0DECF1FF0DECF20F0DECF21F0DECF29
:1015D00022F0DECF23F030C001F031C002F0000E67
:1015E000046E180E036E91EC1BF0030E0124D96EED
:1015F000010E0220DA6E1C50DE5E1D50DE5A1E50B7
:10160000DE5A1F50DE5A2050DE5A2150DE5A225038
:10161000DE5A2350DE5A2EC001F02FC002F0000E19
:10162000046E180E036E91EC1BF0160E0124D96E99
:10163000010E0220DA6E30C0DEFF31C0DDFF0DEF9B
:1016400009F0120000018C518D11D8A42AEF0BF083
:101650002CEF0BF02EEF0BF045EF0CF08AC04FF0A3
:101660008BC050F04FC001F050C002F0000E046E6D
:10167000180E036E91EC1BF0160E0124D96E010EAC
:101680000220DA6EDECF8AF0DDCF8BF04FC001F0A2
:1016900050C002F0000E046E180E036E91EC1BF0A9
:1016A000160E0124D96E010E0220DA6EFF0EDE6ED8
:1016B000FF0EDD6E00018C07D8A08D074FC001F032
:1016C00050C002F0000E046E180E036E91EC1BF079
:1016D000150E0124D96E010E0220DA6EFF0EDF6EA8
:1016E0004FC001F050C002F0000E046E180E036EE1
:1016F00091EC1BF00B0E0124D96E010E0220DA6E64
:10170000DE50DE10DE10DE10DE10DE10DE10DE1029
:10171000D8B48DEF0BF08FEF0BF045EF0CF04FC00E
:1017200001F050C002F0000E046E180E036E91EC32
:101730001BF00B0E0124D96E010E0220DA6EDECFF3
:1017400032F0DECF33F0DECF34F0DECF35F0DECF57
:1017500036F0DECF37F0DECF38F0DECF39F032C0F2
:101760003AF033C03BF034C03CF035C03DF036C0F9
:101770003EF037C03FF038C040F039C041F04FC0B4
:1017800001F050C002F0000E046E180E036E91ECD2
:101790001BF00B0E0124D96E010E0220DA6EDECF93
:1017A00032F0DECF33F0DECF34F0DECF35F0DECFF7
:1017B00036F0DECF37F0DECF38F0DECF39F032C092
:1017C00042F033C043F034C044F035C045F036C079
:1017D00046F037C047F038C048F039C049F04FC034
:1017E00001F050C002F0000E046E180E036E91EC72
:1017F0001BF0000E0124D96E010E0220DA6EDECF3E
:101800004AF0DECF4BF0DDCF4CF04FC001F050C0BE
:1018100002F0000E046E180E036E91EC1BF0130E16
:101820000124D96E010E0220DA6EDECF4DF0DDCF3D
:101830004EF03AC007F03BC008F03CC009F03DC094
:101840000AF03EC00BF03FC00CF040C00DF041C0AC
:101850000EF042C00FF043C010F044C011F045C07C
:1018600012F046C013F047C014F048C015F049C04C
:1018700016F04AC017F04BC018F04CC019F04DC01C
:101880001AF04EC01BF03BEC08F01200DFC001F074
:10189000E0C002F0000E046EC80E036E91EC1BF067
:1018A00001C0C4F002C0C5F00001000EC5BFFF0EAC
:1018B000C66FC76FC86FC96FCA6FCB6F000E326E2D
:1018C000000E336E000E346E000E356E000E366E56
:1018D000000E376E000E386E000E396EC4C03AF03E
:1018E000C5C03BF0C6C03CF0C7C03DF0C8C03EF02C
:1018F000C9C03FF0CAC040F0CBC041F04E0E426EAE
:10190000380E436E000E446EB7EC16F0DFC001F0E7
:10191000E0C002F0000E046E640E036E91EC1BF04A
:1019200001C0C4F002C0C5F00001000EC5BFFF0E2B
:10193000C66FC76FC86FC96FCA6FCB6FDFC001F0CA
:10194000E0C002F0000E046EC80E036E91EC1BF0B6
:1019500001C0BCF002C0BDF00001000EBDBFFF0E13
:10196000BE6FBF6FC06FC16FC26FC36FC4C032F0B4
:10197000C5C033F0C6C034F0C7C035F0C8C036F0BB
:10198000C9C037F0CAC038F0CBC039F0BCC03AF09B
:10199000BDC03BF0BEC03CF0BFC03DF0C0C03EF09B
:1019A000C1C03FF0C2C040F0C3C041F0560E426E0D
:1019B000380E436E000E446EB7EC16F0000E326E19
:1019C000000E336E000E346E000E356E000E366E55
:1019D000000E376E000E386E000E396E640E3A6ED1
:1019E000000E3B6E000E3C6E000E3D6E000E3E6E15
:1019F000000E3F6E000E406E000E416E220E426ED3
:101A00002A0E436E000E446EB7EC16F0000E326ED6
:101A1000000E336E000E346E000E356E000E366E04
:101A2000000E376E000E386E000E396E640E3A6E80
:101A3000000E3B6E000E3C6E000E3D6E000E3E6EC4
:101A4000000E3F6E000E406E000E416E5E0E426E46
:101A5000300E436E000E446EB7EC16F0000E326E80
:101A6000000E336E000E346E000E356E000E366EB4
:101A7000000E376E000E386E000E396E640E3A6E30
:101A8000000E3B6E000E3C6E000E3D6E000E3E6E74
:101A9000000E3F6E000E406E000E416EB00E426EA4
:101AA000360E436E000E446EB7EC16F0000E026E5A
:101AB000000E016E88EC1AF0120081B062EF0DF09A
:101AC00064EF0DF041EF0EF00001AF51D8A46BEFC1
:101AD0000DF06DEF0DF041EF0EF0010EAF6F5E04F3
:101AE000D8A475EF0DF077EF0DF0FCEF0DF0AA51D3
:101AF000D8A47DEF0DF07FEF0DF090EF0DF0000E0C
:101B0000E76F000EE66F000EE06F000EDF6FECEC8B
:101B10001BF0010E0001A96F010EAA6F4BEF0EF032
:101B2000AA05D8A496EF0DF098EF0DF0B3EF0DF0E5
:101B3000A905D8A49EEF0DF0A0EF0DF0B3EF0DF0C6
:101B4000050EE725016E026A000E0222000E046EE9
:101B50003C0E036ECBEC15F001500001E76FEAEC90
:101B600019F04BEF0EF0AA05D8A4B9EF0DF0BBEFBA
:101B70000DF0D6EF0DF0A805D8A4C1EF0DF0C3EF1E
:101B80000DF0D6EF0DF00A0EE625016E026A000E8A
:101B90000222000E046E5A0E036ECBEC15F00150BB
:101BA0000001E66F0AEC1AF04BEF0EF0AA05D8A47C
:101BB000DCEF0DF0DEEF0DF0FAEF0DF0A705D8A485
:101BC000E4EF0DF0E6EF0DF0FAEF0DF0010EDF257A
:101BD000016E000EE021026E000E046E0A0E036E0E
:101BE000CBEC15F001C0DFF002C0E0F088EC19F09A
:101BF0004BEF0EF04BEF0EF05E50D8A402EF0EF05C
:101C000004EF0EF04BEF0EF0A651D8A40AEF0EF041
:101C10000CEF0EF012EF0EF08C8E8C9C010E5E6EAF
:101C20004BEF0EF0A605D8A418EF0EF01AEF0EF049
:101C30004BEF0EF0050E9C25016E000E9D21026EED
:101C4000000E046E3C0E036ECBEC15F001C09CF050
:101C500002C09DF00A0E00019A25016E000E9B2124
:101C6000026E000E046E5A0E036ECBEC15F001C02E
:101C70009AF002C09BF011EC15F02FEC18F04BEF2E
:101C80000EF081A046EF0EF048EF0EF04BEF0EF095
:101C9000000E0001AF6F1200000E0201096F000E6E
:101CA000086F08C2FAF109C2FBF1000E0101FD6FD5
:101CB000180EFC6F44EC1BF00B0E0101FA25D96ED7
:101CC000010EFB21DA6EFF0EDE6EFF0EDE6EFF0EE2
:101CD000DE6EFF0EDE6EFF0EDE6EFF0EDE6EFF0EA0
:101CE000DE6EFF0EDE6E080ED95E000EDA5ADECF13
:101CF00000F2DECF01F2DECF02F2DECF03F2DECF62
:101D000004F2DECF05F2DECF06F2DECF07F208C224
:101D1000FAF109C2FBF1000EFD6F180EFC6F44ECE6
:101D20001BF0030E0101FA25D96E010EFB21DA6EBC
:101D300000C2DEFF01C2DEFF02C2DEFF03C2DEFF21
:101D400004C2DEFF05C2DEFF06C2DEFF07C2DEFF01
:101D500008C2FAF109C2FBF1000EFD6F180EFC6F0C
:101D600044EC1BF0150E0101FA25D96E010EFB2182
:101D7000DA6EFF0EDF6EDF500201006F016B08C2EA
:101D8000FAF109C2FBF1000E0101FD6F180EFC6FA4
:101D900044EC1BF0130E0101FA25D96E010EFB2154
:101DA000DA6E00C2DEFF01C2DDFF08C2FAF109C22D
:101DB000FBF1000EFD6F180EFC6F44EC1BF0160ECD
:101DC0000101FA25E16E010EFB21E26EDECFE6FF96
:101DD000DDCFE5FF08C2FAF109C2FBF1000EFD6F8D
:101DE000180EFC6F44EC1BF0000E0101FA25D96EB1
:101DF000010EFB21DA6E000EDE6E000EDE6E000EAE
:101E0000DE6E08C2FAF109C2FBF1000EFD6F030E8F
:101E1000FC6F44EC1BF0600E0101FA25D96E000E38
:101E2000FB21DA6E000EDE6E000EDE6E000EDE6E40
:101E30000201084B092B09BF27EF0FF0095109E1F7
:101E40000A0E085DD8A027EF0FF029EF0FF051EF31
:101E50000EF01200DCEF0FF08C8E8C9C5E50D8A43C
:101E600034EF0FF036EF0FF0F7EF0FF08C9A8C9EF7
:101E70008C8C31EC1CF02FEC1BF0010E0001AE6FCE
:101E8000170E0001DE6F700EDD6FF7EF0FF000012F
:101E9000A305D8A44EEF0FF050EF0FF05BEF0FF05B
:101EA0001DEC1CF0020E0001AE6F2FEC1CF0E1ECFB
:101EB0001BF040EF0FF05E04D8A461EF0FF063EF6A
:101EC0000FF078EF0FF01DEC1CF018EC1CF08C9468
:101ED000000E00019B6F000E9A6F9AC09CF09BC091
:101EE0009DF0000E0001AE6F1AEC1BF0F7EF0FF043
:101EF000A205D8A47EEF0FF080EF0FF087EF0FF070
:101F00008C8A1DEC1CF0010E5E6E71EF0FF0A2ECDE
:101F100010F00001A651D8A490EF0FF092EF0FF04F
:101F200096EF0FF001EC1BF0F7EF0FF023EC16F03B
:101F3000F7EF0FF00001A405D8A4A1EF0FF0A3EF75
:101F40000FF0AEEF0FF018EC1CF0010E0001AE6FB9
:101F500031EC1CF02FEC1BF040EF0FF05E04D8A426
:101F6000B4EF0FF0B6EF0FF0BDEF0FF01DEC1CF06B
:101F700018EC1CF08C9468EF0FF0A205D8A4C3EF06
:101F80000FF0C5EF0FF0CFEF0FF08C8A18EC1CF0BC
:101F9000010E5E6E000E0001AE6FF7EF0FF0A2ECC7
:101FA00010F00001A651D8A4D8EF0FF0DAEF0FF02F
:101FB00096EF0FF092EF0FF00001AE510201086FA3
:101FC000096B0951000AD8B4E8EF0FF0F7EF0FF0F2
:101FD0000851000AD8B42CEF0FF0010AD8B447EF2B
:101FE0000FF0030AD8B49AEF0FF0F7EF0FF01200DA
:101FF00080BAFDEF0FF0FFEF0FF097EF10F0000148
:10200000B051D8A406EF10F008EF10F097EF10F0E1
:10201000010EB06F5E04D8A410EF10F012EF10F0B4
:1020200061EF10F0AA05D8A418EF10F01AEF10F025
:1020300053EF10F0A905D8A420EF10F022EF10F014
:102040002AEF10F0000EA96F010EA86FA1EF10F09B
:10205000A1EF10F0A805D8A430EF10F032EF10F087
:1020600043EF10F0000EA86F010EA76FC00ECBEC6F
:1020700018F0010E086E100E096E69EC1AF088EC6B
:1020800019F0A1EF10F0A705D8A449EF10F04BEF1D
:1020900010F028EF10F0000EA76F000EAA6F7EEC74
:1020A0001BF0A1EF10F0AA51D8A459EF10F05BEF8C
:1020B00010F028EF10F046EC0CF0000E5E6EA1EF71
:1020C00010F05E50D8A467EF10F069EF10F0A1EFA8
:1020D00010F0A651D8A46FEF10F071EF10F084EF5C
:1020E00010F0000E9D6F000E9C6F000E9B6F000E97
:1020F0009A6F000E026E000E016EA7EC1AF0010E30
:102100000001A66FA1EF10F0A605D8A48AEF10F089
:102110008CEF10F0A1EF10F0000E026E000E016EB9
:1021200088EC1AF0000E0001A66FA1EF10F080AA53
:102130009CEF10F09EEF10F0A1EF10F0000E0001E8
:10214000B06F1200960E0201046F800E036F95901F
:102150008C90410E0201006FEE0EE82EFED7002F8C
:10216000FCD700F08C80100EE82EFED700D09580B2
:10217000CCEF10F002010307D8A0040703510411AB
:10218000D8A4C5EF10F0C7EF10F0CCEF10F0010E9F
:1021900000019E6F3FEF11F083B0D1EF10F0D3EF4D
:1021A00010F0BAEF10F0960E0201046F800E036F6C
:1021B000E8EF10F00307D8A0040703510411D8A4D6
:1021C000E4EF10F0E6EF10F0E8EF10F0C7EF10F0DA
:1021D00083A0EDEF10F0F0EF10F0010EF1EF10F032
:1021E000000E006F016B00B1F8EF10F0FAEF10F085
:1021F000DAEF10F0960E046F800E036F0EEF11F001
:102200000307D8A0040703510411D8A40AEF11F062
:102210000CEF11F00EEF11F0C7EF10F083B013EFD9
:1022200011F015EF11F000EF11F069EC12F0000160
:102230008E6F69EC12F000018F6F69EC12F00001F3
:10224000906F69EC12F00001916F69EC12F00001DF
:10225000A06F8F5191258E2590250201026F0001FC
:10226000A05102010219D8B438EF11F03AEF11F081
:102270003CEF11F0C7EF10F0000E00019E6F12004E
:102280008AC05CF08BC05DF05CC001F05DC002F004
:10229000000E046E180E036E91EC1BF0030E012469
:1022A000D96E010E0220DA6EDE50DE10DE10DE1076
:1022B000DE10DE10DE10DE10D8B461EF11F063EF37
:1022C00011F0B2EF11F05CC001F05DC002F0000E41
:1022D000046E180E036E91EC1BF0030E0124D96EF0
:1022E000010E0220DA6EDE06000EDE5ADE5ADE5ADB
:1022F000DE5ADE5ADE5ADE5AB2EF11F05CC001F04F
:102300005DC002F0000E046E180E036E91EC1BF01F
:10231000000E0124D96E010E0220DA6EDECF59F0D4
:10232000DECF5AF0DDCF5BF059C007F05AC008F09D
:102330005BC009F070EC16F022EC0BF05CC001F011
:102340005DC002F0000E046E180E036E91EC1BF0DF
:10235000160E0124D96E010E0220DA6EDECF5CF07B
:10236000DDCF5DF05CC001F05DC002F0000E046ED8
:10237000180E036E91EC1BF0030E0124D96E010EB2
:102380000220DA6EDE50DE10DE10DE10DE10DE100F
:10239000DE10DE10D8A4CFEF11F0D1EF11F0DBEF9B
:1023A00011F05C2806E15D28D8A4D9EF11F0DBEF2D
:1023B00011F07EEF11F012000600E1CFCCF0E2CF79
:1023C000CDF0D9CFCEF0DACFCFF0F3CFD0F0F4CF3D
:1023D000D1F0F6CFD2F0F7CFD3F0F8CFD4F0F5CFDD
:1023E000D5F0F2AAF6EF11F0F8EF11F017EF12F0B6
:1023F000F2A4FDEF11F0FFEF11F017EF12F05E50B5
:10240000D8A405EF12F007EF12F012EF12F000015E
:10241000A651D8A40EEF12F010EF12F012EF12F046
:102420007E4B7F2B000ED76EB20ED66EF29400015B
:102430007E517F11D8B41FEF12F021EF12F031EF6F
:1024400012F05E50D8A427EF12F029EF12F031EF0E
:1024500012F0000E7F6F000E7E6F40EC11F02AEC40
:102460001AF09DA036EF12F038EF12F053EF12F091
:102470009EA03DEF12F03FEF12F053EF12F000017B
:10248000AC51D8A446EF12F048EF12F04AEF12F028
:10249000010EAC6FF8EC0FF05DEC0DF0F60ECF6EA8
:1024A0003C0ECE6E9E90D5C0F5FFD4C0F8FFD3C0D1
:1024B000F7FFD2C0F6FFD1C0F4FFD0C0F3FFCFC00A
:1024C000DAFFCEC0D9FFCDC0E2FFCCC0E1FF5F9202
:1024D0001100000E0101FF6F960EFE6F800EFD6F62
:1024E00081EF12F0FD07D8A0FE07FD51FE11D8A420
:1024F0007CEF12F07EEF12F081EF12F0000EE8EFA9
:1025000012F083A086EF12F089EF12F0010E8AEF2D
:1025100012F0000EFA6FFB6BFAB191EF12F093EF2D
:1025200012F072EF12F0170EE82EFED700F083B013
:102530009CEF12F09EEF12F0B2EF12F00101FF518A
:102540000708FA6F010EFB6FFA2BA9EF12F0D89073
:10255000FB37FA2FA7EF12F00101FB51FF0AFC171E
:10256000C3EF12F00101FF510708FA6F010EFB6F74
:10257000FA2BBDEF12F0D890FB37FA2FBBEF12F019
:102580000101FB51FC13960EFE6F800EFD6FD7EF1D
:1025900012F0FD07D8A0FE07FD51FE11D8A4D3EF1D
:1025A00012F0D5EF12F0D7EF12F07EEF12F083B0F9
:1025B000DCEF12F0DEEF12F0C9EF12F0FF2B070E86
:1025C000FF65E5EF12F0E7EF12F06CEF12F0FC514F
:1025D00012005FA2EEEF12F011EF15F00001E751CB
:1025E0000101FA6FFB6BFA5100019C5D9D51800A5D
:1025F0000101FC6FFB51800AFC59D8B002EF13F0C7
:1026000004EF13F01AEF13F00001E7510101FA6F24
:10261000FB6BFA510001985D9951800A0101FC6F32
:10262000FB51800AFC59D8A018EF13F01AEF13F0F1
:1026300027EF13F00001A405D8A421EF13F023EF36
:1026400013F027EF13F01DEC1CF0FFEC1BF0000162
:10265000E7510101FA6FFB6BFA5100019C5D9D513E
:10266000800A0101FC6FFB51800AFC59D8B03BEF96
:1026700013F03DEF13F053EF13F00001E7510101A8
:10268000FA6FFB6BFA510001985D9951800A0101C4
:10269000FC6FFB51800AFC59D8A051EF13F053EFA7
:1026A00013F05EEF13F00001A305D8A45AEF13F066
:1026B0005CEF13F05EEF13F0010E5E6E1200000E81
:1026C0000201016F0101FDBF6AEF13F068EF13F023
:1026D00071EF13F0FC6DFD1FD8B0FD2B010E020150
:1026E000016F0101FBBF79EF13F077EF13F080EF7B
:1026F00013F0FA6DFB1FD8B0FB2B010E0201011B7A
:10270000000E0201036F000E026F0101FC51FD116A
:10271000D8B48DEF13F08FEF13F0BFEF13F0010E6D
:102720000201006F99EF13F0D890FC37FD370201DA
:10273000002B0101FDAF9FEF13F0A1EF13F094EF19
:1027400013F00201D890023703370101FC51FA5D02
:10275000FD51FB59D8A0AFEF13F0B1EF13F0B7EF75
:1027600013F0FC51FA5FFD51FB5B02010281010194
:10277000D890FD33FC330201002FA1EF13F00201CA
:102780000151D8B4C6EF13F0C8EF13F0CCEF13F03B
:10279000026D031FD8B0032B02C2FAF103C2FBF192
:1027A0001200020106050711D8A4D9EF13F0DBEFE0
:1027B00013F028EF14F0040E016F010E4AEC1AF02A
:1027C00098C0FAF199C0FBF1000E0101FD6F0A0EED
:1027D000FC6F5FEC13F00101FA51300F40EC17F081
:1027E00098C0FAF199C0FBF1000E0101FD6F0A0ECD
:1027F000FC6F72EC15F00101FA51300F40EC17F04C
:102800000B0E0201016F010E4AEC1AF096C0FAF1AC
:1028100097C0FBF1000E0101FD6F0A0EFC6F5FEC2B
:1028200013F00101FA51300F40EC17F096C0FAF1A5
:1028300097C0FBF1000E0101FD6F0A0EFC6F72ECF8
:1028400015F00101FA51300F40EC17F041EF14F090
:10285000040E016F010E4AEC1AF0720E0201016FB4
:10286000100E026FCAEC19F00B0E0201016F010E7F
:102870004AEC1AF0720E0201016F100E026FCAECE0
:1028800019F01200000E0201046F000E036F83EFB7
:1028900014F003C2FAF104C2FBF1000E0101FD6F56
:1028A000030EFC6F44EC1BF0600E0101FA25D96E9B
:1028B000000EFB21DA6E02D868EF14F00500FA6E04
:1028C000DE50FD6EDE50FE6EDE50FF6EFA501200DE
:1028D00003C2FAF104C2FBF1000E0101FD6F030E09
:1028E000FC6F44EC1BF0600E0101FA25D96E000E5E
:1028F000FB21DA6E000EDE6E000EDE6E000EDE6E66
:102900000201034B042B03C2FAF104C2FBF1000ED7
:102910000101FD6F030EFC6F44EC1BF0600E010122
:10292000FA25D96E000EFB21DA6EDE50DE10DE10C5
:10293000D8B49DEF14F09FEF14F0AEEF14F0020145
:1029400004BFACEF14F0045109E10A0E035DD8A0F6
:10295000ACEF14F0AEEF14F049EF14F01200000EDB
:10296000066E04BEB8EF14F0B6EF14F0BEEF14F02C
:10297000036C041ED8B0042A010E066E02BEC5EF19
:1029800014F0C3EF14F0CBEF14F0016C021ED8B0BA
:10299000022A010E061A000E086E000E076E035082
:1029A0000410D8B4D6EF14F0D8EF14F000EF15F0FF
:1029B000010E056EE0EF14F0D89003360436052AB8
:1029C00004AEE5EF14F0E7EF14F0DCEF14F0D8906C
:1029D000073608360350015C04500258D8A0F3EFC4
:1029E00014F0F5EF14F0FAEF14F00350015E045008
:1029F000025A0780D89004320332052EE7EF14F014
:102A00000650D8B406EF15F008EF15F00CEF15F0EE
:102A1000076C081ED8B0082A07C001F008C002F0F1
:102A200012000001E751016E026A01509C5D9D5148
:102A3000800A036E0250800A0358D8B022EF15F0C6
:102A400024EF15F036EF15F0E751016E026A0150E0
:102A5000985D9951800A036E0250800A0358D8A0ED
:102A600034EF15F036EF15F042EF15F0A405D8A4B9
:102A70003CEF15F03EEF15F042EF15F022EC1CF0A4
:102A80002BEC1CF00001E751016E026A01509C5DC5
:102A90009D51800A036E0250800A0358D8B053EF4C
:102AA00015F055EF15F067EF15F0E751016E026A6A
:102AB0000150985D9951800A036E0250800A0358B4
:102AC000D8A065EF15F067EF15F071EF15F0A305CD
:102AD000D8A46DEF15F06FEF15F071EF15F0010E42
:102AE0005E6E1200000E0101FF6FFBBF7CEF15F060
:102AF0007AEF15F082EF15F0FA6DFB1FD8B0FB2BC3
:102B0000010EFF6FFDBF89EF15F087EF15F08DEF18
:102B100015F0FC6DFD1FD8B0FD2BFC51FD11D8B494
:102B200094EF15F096EF15F0BAEF15F0010EFE6F69
:102B30009EEF15F0D890FC37FD37FE2BFDAFA3EFCD
:102B400015F0A5EF15F09AEF15F0FC51FA5DFD5167
:102B5000FB59D8A0AEEF15F0B0EF15F0B4EF15F0BB
:102B6000FC51FA5FFD51FB5BD890FD33FC33FE2F27
:102B7000A5EF15F0FF51D8B4C0EF15F0C2EF15F076
:102B8000C6EF15F0FA6DFB1FD8B0FB2BFAC1FAF1B6
:102B9000FBC1FBF11200000E066E02BED4EF15F071
:102BA000D2EF15F0DAEF15F0016C021ED8B0022A50
:102BB000010E066E04BEE1EF15F0DFEF15F0E5EF54
:102BC00015F0036C041ED8B0042A03500410D8B4C6
:102BD000ECEF15F0EEEF15F012EF16F0010E056EAA
:102BE000F6EF15F0D89003360436052A04AEFBEF55
:102BF00015F0FDEF15F0F2EF15F00350015C0450F5
:102C00000258D8A006EF16F008EF16F00CEF16F0F9
:102C10000350015E0450025AD89004320332052E4C
:102C2000FDEF15F00650D8B418EF16F01AEF16F0B5
:102C30001EEF16F0016C021ED8B0022A01C001F08E
:102C400002C002F01200040E0201016F010E4AECF4
:102C50001AF09CC0FAF19DC0FBF1000E0101FD6F5E
:102C60000A0EFC6F5FEC13F00101FA51300F40ECDB
:102C700017F09CC0FAF19DC0FBF1000E0101FD6F41
:102C80000A0EFC6F72EC15F00101FA51300F40ECA6
:102C900017F00B0E0201016F010E4AEC1AF09AC0F8
:102CA000FAF19BC0FBF1000E0101FD6F0A0EFC6FF3
:102CB0005FEC13F00101FA51300F40EC17F09AC0AD
:102CC000FAF19BC0FBF1000E0101FD6F0A0EFC6FD3
:102CD00072EC15F00101FA51300F40EC17F01200C0
:102CE000000E0E6E000E0D6E78EF16F00D4A0E2AD5
:102CF0000DC001F00EC002F0000E046E030E036E54
:102D000091EC1BF0600E0124D96E000E0220DA6EE9
:102D1000DE50DE10DE10D8B490EF16F092EF16F011
:102D2000A0EF16F00EBE9EEF16F00E5009E10A0E4F
:102D30000D5CD8A09EEF16F0A0EF16F076EF16F01F
:102D40000DC001F00EC002F0000E046E030E036E03
:102D500091EC1BF0600E0124D96E000E0220DA6E99
:102D600007C0DEFF08C0DEFF09C0DEFF120032C070
:102D700007F033C008F034C009F035C00AF036C09F
:102D80000BF037C00CF038C00DF039C00EF03AC06F
:102D90000FF03BC010F03CC011F03DC012F03EC03F
:102DA00013F03FC014F040C015F041C016F042C00F
:102DB00017F043C018F044C019F0E5C01AF01B6AC0
:102DC0003BEC08F0456E4550466E476A465047104A
:102DD000D8A4EDEF16F0EFEF16F0F9EF16F00001C2
:102DE000E52BFF0EE525326E336AFF0E3322FBEF33
:102DF00016F03268336812005FA201EF17F02FEF70
:102E000018F00001E6510101FA6FFB6B00019A51C5
:102E10000101FA5DFB51800AFC6F00019B51800AA1
:102E20000101FC59D8A017EF17F019EF17F02FEF99
:102E300017F00001E6510101FA6FFB6BFA51000136
:102E4000965D9751800A0101FC6FFB51800AFC5985
:102E5000D8A02DEF17F02FEF17F03FEF17F05E50CF
:102E6000D8A435EF17F037EF17F03FEF17F08CB419
:102E70003CEF17F03EEF17F03FEF17F08C84120095
:102E80000201006F110E0101FF6F3A0EE82EFED70E
:102E9000FF2FFCD700F0800E0101FD6F120EB5EC84
:102EA0001BF0040E0101FF6F3D0EE82EFED7FF2F31
:102EB000FCD700D000C2FDF1130EB5EC1BF0040EE0
:102EC0000101FF6F3D0EE82EFED7FF2FFCD700D08B
:102ED000C00E0101FD6F120EB5EC1BF0040E0101D6
:102EE000FF6F3D0EE82EFED7FF2FFCD700D0000E5F
:102EF0000101FD6F120EB5EC1BF012000201006F14
:102F0000110E0101FF6F3A0EE82EFED7FF2FFCD7FE
:102F100000F0000E0101FD6F120EB5EC1BF0040E67
:102F20000101FF6F3D0EE82EFED7FF2FFCD700D02A
:102F300000C2FDF1130EB5EC1BF0040E0101FF6F92
:102F40003D0EE82EFED7FF2FFCD700D0400E01012A
:102F5000FD6F120EB5EC1BF0040E0101FF6F3D0E6C
:102F6000E82EFED7FF2FFCD700D0000E0101FD6F29
:102F7000120EB5EC1BF012000101FA6FFAC1FCF160
:102F8000000E0101FB6FFAAFC8EF17F0CAEF17F0A0
:102F9000CDEF17F08B8ACEEF17F08B9A8BA8D3EF7B
:102FA00017F0D5EF17F0D9EF17F0D880FC37DCEF2A
:102FB00017F0FC51FC25FC6F8B8600F000F000F050
:102FC00000F000F000F000F000F000F000F000F081
:102FD00000F08B960101D890FA37FB2B070EFB65AA
:102FE000F4EF17F0F6EF17F0C3EF17F01200016ED1
:102FF00001C003F0000E026E01AE01EF18F003EF06
:1030000018F006EF18F08B8A07EF18F08B9A8BA850
:103010000CEF18F00EEF18F012EF18F0D88003360E
:1030200015EF18F003500324036E8B8600F000F0B8
:1030300000F000F000F000F000F000F000F000F010
:1030400000F000F08B96D8900136022A070E026439
:103050002CEF18F02EEF18F0FCEF17F01200000123
:10306000E651016E026A9A51015C0250800A036EB9
:103070009B51800A0358D8A040EF18F042EF18F097
:1030800054EF18F0E651016E026A0150965D9751B7
:10309000800A036E0250800A0358D8A052EF18F03D
:1030A00054EF18F064EF18F05E50D8A45AEF18F0FF
:1030B0005CEF18F064EF18F08CB461EF18F063EF78
:1030C00018F064EF18F08C84120008EC1CF0979C48
:1030D0008E9C110E0201016F3A0EE82EFED7012FD1
:1030E000FCD700F08E8C000EC5EC1BF0010EC5EC79
:1030F0001BF0000E0101FD6F120EB5EC1BF0310E3E
:103100000201016FB20EE82EFED7012FFCD700F0AE
:10311000320E7EEC17F03C0E7EEC17F00C0E7EECBF
:1031200017F0010E7EEC17F0060E7EEC17F0120081
:10313000076E110E066E3A0EE82EFED7062EFCD74D
:1031400000D0800E046E120ED4EC1BF0040E066E3E
:103150003E0EE82EFED7062EFCD707C004F0130E55
:10316000D4EC1BF0040E066E3E0EE82EFED7062EA3
:10317000FCD7C00E046E120ED4EC1BF0040E066ECB
:103180003E0EE82EFED7062EFCD7000E046E120E61
:10319000D4EC1BF01200076E110E066E3A0EE82EEC
:1031A000FED7062EFCD700D0000E046E120ED4EC13
:1031B0001BF0040E066E3E0EE82EFED7062EFCD740
:1031C00007C004F0130ED4EC1BF0040E066E3E0E86
:1031D000E82EFED7062EFCD7400E046E120ED4EC5D
:1031E0001BF0040E066E3E0EE82EFED7062EFCD710
:1031F000000E046E120ED4EC1BF01200C6EC1AF096
:103200000001AB51D8A407EF19F009EF19F017EF3F
:1032100019F0AC05D8A40FEF19F011EF19F017EF62
:1032200019F01AEC1BF08C8E010E0001AB6F2AEC2A
:103230000FF05E50D8A41FEF19F021EF19F000EF46
:1032400019F00001A651D8A428EF19F02AEF19F0BF
:1032500000EF19F042EC14F000EF19F007EF00F066
:1032600046EF19F0470ED56E000ED76EB20ED66E31
:10327000F28AF2945DEF19F0B40ECD6EF60ECF6EB9
:103280003C0ECE6E9D809E905DEF19F0FAC1FCF170
:10329000FBC1FDF10101FD51000AD8B452EF19F054
:1032A0005DEF19F0FC51000AD8B432EF19F0010AB1
:1032B000D8B43CEF19F05DEF19F01200EC0EF66E89
:1032C000370EF76E000EF86E00EED6F010EE12F02C
:1032D0000900F5CFEEFFE550E150FAE1660EF66E1B
:1032E000380EF76E000EF86E0900F5CF5EF001EEB5
:1032F00000F0FA0EEE6AE806FDE100EE60F0520E14
:10330000EE6AE806FDE15F905F920001FEEF18F0C3
:103310000A0E086E010EE4EC1AF0DFC001F0E0C006
:1033200002F0000E046E0A0E036EAFEC14F00150B2
:10333000300F98EC18F0DFC001F0E0C002F0000E92
:10334000046E0A0E036ECBEC15F00150300F98ECB2
:1033500018F01200B2EF19F0D58EC9EF19F0CD8038
:10336000C9EF19F0FAC1FCF1FBC1FDF10101FD51FA
:10337000000AD8B4BEEF19F0C9EF19F0FC51000AE9
:10338000D8B4ACEF19F0010AD8B4AFEF19F0C9EF17
:1033900019F01200D9EF19F001C2F6FF02C2F7FFCF
:1033A000000EF86E0800F55040EC17F00201014BDA
:1033B000022B01C2F6FF02C2F7FF000EF86E0800F2
:1033C000F5500009D8A4E7EF19F0E9EF19F0CCEFB8
:1033D00019F01200040E086E010EE4EC1AF0E7C0BA
:1033E00001F0026A000E046E0A0E036EAFEC14F0D8
:1033F0000150300F98EC18F0E7C001F0026A000E9F
:10340000046E0A0E036ECBEC15F00150300F98ECF1
:1034100018F012000B0E086E010EE4EC1AF0E6C074
:1034200001F0026A000E046E0A0E036EAFEC14F097
:103430000150300F98EC18F0E6C001F0026A000E5F
:10344000046E0A0E036ECBEC15F00150300F98ECB1
:1034500018F012005E50D8A430EF1AF032EF1AF0D4
:1034600049EF1AF00001A251D8A439EF1AF03BEF4E
:103470001AF049EF1AF0DD07D8A0DE07DD51DE11A2
:10348000D8A445EF1AF047EF1AF049EF1AF0010EF1
:10349000A26F12000201026F02010251D8B453EF71
:1034A0001AF055EF1AF05DEF1AF0C00E0125046F07
:1034B000056B000E052363EF1AF0800E0125046FE3
:1034C000056B000E052304C203F203517EEC17F0D6
:1034D000120077EF1AF008C0F6FF09C0F7FF000EE0
:1034E000F86E0800F55098EC18F0084A092A08C050
:1034F000F6FF09C0F7FF000EF86E0800F55000094E
:10350000D8A485EF1AF087EF1AF06BEF1AF01200CB
:1035100090EF1AF0D58EA6EF1AF0CD80A6EF1AF034
:1035200001C003F002C004F00450000AD8B49BEFBD
:103530001AF0A6EF1AF00350000AD8B48AEF1AF076
:10354000010AD8B48DEF1AF0A6EF1AF01200AFEF0F
:103550001AF0D59EC5EF1AF0CD90C5EF1AF001C054
:1035600003F002C004F00450000AD8B4BAEF1AF015
:10357000C5EF1AF00350000AD8B4A9EF1AF0010AF7
:10358000D8B4ACEF1AF0C5EF1AF0120011EC1CF031
:10359000000E0101FB6F000EFA6F30EC19F0000E07
:1035A0000101FB6F010EFA6F30EC19F04CEC0EF0DC
:1035B0006BEC1BF0A4EC1BF0000E0101FB6F010E85
:1035C000FA6FAAEC19F01200096E0950D8B4EBEFAB
:1035D0001AF0EDEF1AF0F5EF1AF0C00E08240A6E9B
:1035E0000B6A000E0B22FBEF1AF0800E08240A6E05
:1035F0000B6A000E0B220AC00CF00C50CBEC18F03A
:10360000120000019E05D8A408EF1BF00AEF1BF082
:103610000CEF1BF019EF1BF090C098F0996B8EC067
:1036200096F0976B000E0201076F010E066FD1EC4A
:1036300013F01200800E7EEC17F0470E0201016FAE
:10364000100E026FCAEC19F0C00E7EEC17F0140ECB
:103650000201016F100E026FCAEC19F01200800E09
:103660007EEC17F0360E0201016F100E026FCAECED
:1036700019F0C00E7EEC17F0660E0201016F100EFD
:10368000026FCAEC19F012000101FA51FC03F3CFEA
:10369000FEF1F4CFFFF1FA51FD03F350FF27FB5188
:1036A000FC03F350FF27FEC1FAF1FFC1FBF112004A
:1036B0008CA25DEF1BF062EF1BF00101FA6BFA2B9D
:1036C00064EF1BF00101FA6BFA478C50FA19FD0BFD
:1036D000FA198C6E120095928C9295949596959805
:1036E000959E959C959A8C988C968C948C9E8C9C8F
:1036F0008C9A928A93800F0EC16E1200800ECBECD2
:1037000018F0470E086E100E096E69EC1AF0C00E24
:10371000CBEC18F0140E086E100E096E69EC1AF05E
:10372000120001500302F3CF05F0F4CF06F0015070
:103730000402F350062602500302F350062605C089
:1037400001F006C002F01200000E896EF30E926EB8
:10375000000E8A6E9368000E8B6ED70E946E65EC29
:1037600018F0010E7EEC17F012000101FE6F899433
:10377000400EBCEC17F00101FE51BCEC17F001014A
:10378000FD51BCEC17F0898412000101FD6F899492
:10379000400EBCEC17F00101FD51BCEC17F0000E1F
:1037A000BCEC17F089841200056E8994400EF7EC8A
:1037B00017F00550F7EC17F00450F7EC17F0898478
:1037C0001200800E7EEC17F0250E0201016F100E24
:1037D000026FCAEC19F01200C00ECBEC18F0580EB4
:1037E000086E100E096E69EC1AF012000001020357
:1037F000040A0070170A0001010101015A325FA298
:1038000004EF1CF02BEF1CF0010E0001A36F12005F
:1038100092949488949A949689848B888B9A8B96A8
:103820001200730ED36E0F0E9B6EF28EF28C12008E
:10383000000E0001A36F8C981200000E0001A46F0F
:103840008C961200000E0001A46F8C961200010EDF
:103850000001A46F1200010E0001A36F12008C88FA
:0738600012008C861200012A
:020000040020DA
:08000000FFFFFFFFFFFFFFFF00
:020000040030CA
:0E000000FF09191EF38381FFFFC0FFE0FF40E0
:00000001FF
